{
  "_format": "hh-sol-artifact-1",
  "contractName": "VaultFactory",
  "sourceName": "contracts/VaultFactory.sol",
  "abi": [
    {
      "inputs": [
        {
          "internalType": "address",
          "name": "owner",
          "type": "address"
        }
      ],
      "stateMutability": "nonpayable",
      "type": "constructor"
    },
    {
      "inputs": [
        {
          "internalType": "address",
          "name": "account",
          "type": "address"
        }
      ],
      "name": "AddressInsufficientBalance",
      "type": "error"
    },
    {
      "inputs": [],
      "name": "Create2EmptyBytecode",
      "type": "error"
    },
    {
      "inputs": [],
      "name": "Create2FailedDeployment",
      "type": "error"
    },
    {
      "inputs": [
        {
          "internalType": "uint256",
          "name": "balance",
          "type": "uint256"
        },
        {
          "internalType": "uint256",
          "name": "needed",
          "type": "uint256"
        }
      ],
      "name": "Create2InsufficientBalance",
      "type": "error"
    },
    {
      "inputs": [],
      "name": "FailedInnerCall",
      "type": "error"
    },
    {
      "anonymous": false,
      "inputs": [
        {
          "indexed": false,
          "internalType": "address",
          "name": "vault",
          "type": "address"
        }
      ],
      "name": "VaultCreated",
      "type": "event"
    },
    {
      "inputs": [],
      "name": "beaconAddress",
      "outputs": [
        {
          "internalType": "address",
          "name": "",
          "type": "address"
        }
      ],
      "stateMutability": "view",
      "type": "function"
    },
    {
      "inputs": [
        {
          "internalType": "string",
          "name": "name",
          "type": "string"
        }
      ],
      "name": "computeProxyAddress",
      "outputs": [
        {
          "internalType": "address",
          "name": "",
          "type": "address"
        }
      ],
      "stateMutability": "view",
      "type": "function"
    },
    {
      "inputs": [
        {
          "internalType": "string",
          "name": "name",
          "type": "string"
        }
      ],
      "name": "computeVaultAddress",
      "outputs": [
        {
          "internalType": "address",
          "name": "",
          "type": "address"
        }
      ],
      "stateMutability": "view",
      "type": "function"
    },
    {
      "inputs": [
        {
          "internalType": "string",
          "name": "name",
          "type": "string"
        },
        {
          "internalType": "address payable",
          "name": "owner",
          "type": "address"
        }
      ],
      "name": "deployVaultUpgradeableBeacon",
      "outputs": [],
      "stateMutability": "nonpayable",
      "type": "function"
    },
    {
      "inputs": [
        {
          "internalType": "string",
          "name": "name",
          "type": "string"
        },
        {
          "internalType": "address payable",
          "name": "owner",
          "type": "address"
        }
      ],
      "name": "deployVaultWithCreate2",
      "outputs": [],
      "stateMutability": "nonpayable",
      "type": "function"
    },
    {
      "inputs": [
        {
          "internalType": "string",
          "name": "name",
          "type": "string"
        },
        {
          "internalType": "address payable",
          "name": "owner",
          "type": "address"
        }
      ],
      "name": "deployVaultWithNewSalt",
      "outputs": [],
      "stateMutability": "nonpayable",
      "type": "function"
    },
    {
      "inputs": [
        {
          "internalType": "string",
          "name": "name",
          "type": "string"
        }
      ],
      "name": "sendValue",
      "outputs": [],
      "stateMutability": "payable",
      "type": "function"
    }
  ],
  "bytecode": "0x60a06040523480156200001157600080fd5b5060405162002d6438038062002d648339818101604052810190620000379190620001fd565b6000604051620000479062000177565b604051809103906000f08015801562000064573d6000803e3d6000fd5b5090508073ffffffffffffffffffffffffffffffffffffffff1663c4d66de8836040518263ffffffff1660e01b8152600401620000a2919062000254565b600060405180830381600087803b158015620000bd57600080fd5b505af1158015620000d2573d6000803e3d6000fd5b5050505060007f55d7f2685b26f9d8de65be10f36af79a27258b12213d87c9e97cc053aa979f478284604051620001099062000185565b6200011692919062000282565b8190604051809103906000f590508015801562000137573d6000803e3d6000fd5b5090508073ffffffffffffffffffffffffffffffffffffffff1660808173ffffffffffffffffffffffffffffffffffffffff1681525050505050620002af565b6104f8806200201d83390190565b61084f806200251583390190565b600080fd5b600073ffffffffffffffffffffffffffffffffffffffff82169050919050565b6000620001c58262000198565b9050919050565b620001d781620001b8565b8114620001e357600080fd5b50565b600081519050620001f781620001cc565b92915050565b60006020828403121562000216576200021562000193565b5b60006200022684828501620001e6565b91505092915050565b60006200023c8262000198565b9050919050565b6200024e816200022f565b82525050565b60006020820190506200026b600083018462000243565b92915050565b6200027c81620001b8565b82525050565b600060408201905062000299600083018562000271565b620002a8602083018462000271565b9392505050565b608051611d44620002d96000396000818161027701528181610501015261057a0152611d446000f3fe6080604052600436106200007a5760003560e01c80636300e0d911620000555780636300e0d914620001115780637e2ec6d0146200013f5780639b4d9b04146200016f578063bd51522814620001b3576200007a565b806322ec91dc146200007f5780632785089e14620000c3578063557d6f0014620000f1575b600080fd5b3480156200008c57600080fd5b50620000ab6004803603810190620000a5919062000ac6565b620001e1565b604051620000ba919062000b5c565b60405180910390f35b348015620000d057600080fd5b50620000ef6004803603810190620000e9919062000bbe565b6200024a565b005b6200010f600480360381019062000109919062000ac6565b62000381565b005b3480156200011e57600080fd5b506200013d600480360381019062000137919062000bbe565b620003f5565b005b3480156200014c57600080fd5b5062000157620004ff565b60405162000166919062000b5c565b60405180910390f35b3480156200017c57600080fd5b506200019b600480360381019062000195919062000ac6565b62000523565b604051620001aa919062000b5c565b60405180910390f35b348015620001c057600080fd5b50620001df6004803603810190620001d9919062000bbe565b620005f0565b005b60006200024382604051602001620001fa919062000c9d565b6040516020818303038152906040528051906020012060405180602001620002229062000934565b6020820181038252601f19601f8201166040525080519060200120620006fc565b9050919050565b6000826040516020016200025f919062000c9d565b604051602081830303815290604052805190602001207f0000000000000000000000000000000000000000000000000000000000000000604051620002a49062000942565b620002b0919062000cf1565b8190604051809103906000f5905080158015620002d1573d6000803e3d6000fd5b5090508073ffffffffffffffffffffffffffffffffffffffff1663c4d66de8836040518263ffffffff1660e01b81526004016200030f919062000d34565b600060405180830381600087803b1580156200032a57600080fd5b505af11580156200033f573d6000803e3d6000fd5b505050507f2e49a5810fda2439a23771848b4acec786b0a64d4de3d124ac57fc8739c388758160405162000374919062000b5c565b60405180910390a1505050565b6000620003e3826040516020016200039a919062000c9d565b6040516020818303038152906040528051906020012060405180602001620003c29062000934565b6020820181038252601f19601f8201166040525080519060200120620006fc565b9050620003f1813462000713565b5050565b6000826040516020016200040a919062000c9d565b604051602081830303815290604052805190602001206040516200042e9062000934565b8190604051809103906000f59050801580156200044f573d6000803e3d6000fd5b5090508073ffffffffffffffffffffffffffffffffffffffff1663c4d66de8836040518263ffffffff1660e01b81526004016200048d919062000d34565b600060405180830381600087803b158015620004a857600080fd5b505af1158015620004bd573d6000803e3d6000fd5b505050507f2e49a5810fda2439a23771848b4acec786b0a64d4de3d124ac57fc8739c3887581604051620004f2919062000b5c565b60405180910390a1505050565b7f000000000000000000000000000000000000000000000000000000000000000081565b6000620005e9826040516020016200053c919062000c9d565b6040516020818303038152906040528051906020012060405180602001620005649062000942565b6020820181038252601f19601f820116604052507f0000000000000000000000000000000000000000000000000000000000000000604051602001620005ab919062000d89565b604051602081830303815290604052604051602001620005cd92919062000e08565b60405160208183030381529060405280519060200120620006fc565b9050919050565b60006200064d6000846040516020016200060b919062000c9d565b6040516020818303038152906040528051906020012060405180602001620006339062000934565b6020820181038252601f19601f8201166040525062000808565b90508073ffffffffffffffffffffffffffffffffffffffff1663c4d66de8836040518263ffffffff1660e01b81526004016200068a919062000d34565b600060405180830381600087803b158015620006a557600080fd5b505af1158015620006ba573d6000803e3d6000fd5b505050507f2e49a5810fda2439a23771848b4acec786b0a64d4de3d124ac57fc8739c3887581604051620006ef919062000b5c565b60405180910390a1505050565b60006200070b83833062000909565b905092915050565b804710156200075b57306040517fcd78605900000000000000000000000000000000000000000000000000000000815260040162000752919062000b5c565b60405180910390fd5b60008273ffffffffffffffffffffffffffffffffffffffff1682604051620007839062000e57565b60006040518083038185875af1925050503d8060008114620007c2576040519150601f19603f3d011682016040523d82523d6000602084013e620007c7565b606091505b505090508062000803576040517f1425ea4200000000000000000000000000000000000000000000000000000000815260040160405180910390fd5b505050565b600083471015620008545747846040517fe4bbecac0000000000000000000000000000000000000000000000000000000081526004016200084b92919062000e89565b60405180910390fd5b600082510362000890576040517f4ca249dc00000000000000000000000000000000000000000000000000000000815260040160405180910390fd5b8282516020840186f59050600073ffffffffffffffffffffffffffffffffffffffff168173ffffffffffffffffffffffffffffffffffffffff160362000902576040517f741752c200000000000000000000000000000000000000000000000000000000815260040160405180910390fd5b9392505050565b6000604051836040820152846020820152828152600b810160ff815360558120925050509392505050565b6104f88062000eb783390190565b61096080620013af83390190565b6000604051905090565b600080fd5b600080fd5b600080fd5b600080fd5b6000601f19601f8301169050919050565b7f4e487b7100000000000000000000000000000000000000000000000000000000600052604160045260246000fd5b620009b9826200096e565b810181811067ffffffffffffffff82111715620009db57620009da6200097f565b5b80604052505050565b6000620009f062000950565b9050620009fe8282620009ae565b919050565b600067ffffffffffffffff82111562000a215762000a206200097f565b5b62000a2c826200096e565b9050602081019050919050565b82818337600083830152505050565b600062000a5f62000a598462000a03565b620009e4565b90508281526020810184848401111562000a7e5762000a7d62000969565b5b62000a8b84828562000a39565b509392505050565b600082601f83011262000aab5762000aaa62000964565b5b813562000abd84826020860162000a48565b91505092915050565b60006020828403121562000adf5762000ade6200095a565b5b600082013567ffffffffffffffff81111562000b005762000aff6200095f565b5b62000b0e8482850162000a93565b91505092915050565b600073ffffffffffffffffffffffffffffffffffffffff82169050919050565b600062000b448262000b17565b9050919050565b62000b568162000b37565b82525050565b600060208201905062000b73600083018462000b4b565b92915050565b600062000b868262000b17565b9050919050565b62000b988162000b79565b811462000ba457600080fd5b50565b60008135905062000bb88162000b8d565b92915050565b6000806040838503121562000bd85762000bd76200095a565b5b600083013567ffffffffffffffff81111562000bf95762000bf86200095f565b5b62000c078582860162000a93565b925050602062000c1a8582860162000ba7565b9150509250929050565b600081519050919050565b600081905092915050565b60005b8381101562000c5a57808201518184015260208101905062000c3d565b60008484015250505050565b600062000c738262000c24565b62000c7f818562000c2f565b935062000c9181856020860162000c3a565b80840191505092915050565b600062000cab828462000c66565b915081905092915050565b600082825260208201905092915050565b50565b600062000cd960008362000cb6565b915062000ce68262000cc7565b600082019050919050565b600060408201905062000d08600083018462000b4b565b818103602083015262000d1b8162000cca565b905092915050565b62000d2e8162000b79565b82525050565b600060208201905062000d4b600083018462000d23565b92915050565b600082825260208201905092915050565b600062000d7160008362000d51565b915062000d7e8262000cc7565b600082019050919050565b600060408201905062000da0600083018462000b4b565b818103602083015262000db38162000d62565b905092915050565b600081519050919050565b600081905092915050565b600062000dde8262000dbb565b62000dea818562000dc6565b935062000dfc81856020860162000c3a565b80840191505092915050565b600062000e16828562000dd1565b915062000e24828462000dd1565b91508190509392505050565b600062000e3f60008362000dc6565b915062000e4c8262000cc7565b600082019050919050565b600062000e648262000e30565b9150819050919050565b6000819050919050565b62000e838162000e6e565b82525050565b600060408201905062000ea0600083018562000e78565b62000eaf602083018462000e78565b939250505056fe608060405234801561001057600080fd5b506104d8806100206000396000f3fe608060405234801561001057600080fd5b50600436106100415760003560e01c80633ccfd60b14610046578063893d20e814610050578063c4d66de81461006e575b600080fd5b61004e61008a565b005b61005861014b565b60405161006591906103a3565b60405180910390f35b61008860048036038101906100839190610401565b610174565b005b3373ffffffffffffffffffffffffffffffffffffffff1660008054906101000a900473ffffffffffffffffffffffffffffffffffffffff1673ffffffffffffffffffffffffffffffffffffffff16146100e257600080fd5b60008054906101000a900473ffffffffffffffffffffffffffffffffffffffff1673ffffffffffffffffffffffffffffffffffffffff166108fc479081150290604051600060405180830381858888f19350505050158015610148573d6000803e3d6000fd5b50565b60008060009054906101000a900473ffffffffffffffffffffffffffffffffffffffff16905090565b600061017e61033a565b905060008160000160089054906101000a900460ff1615905060008260000160009054906101000a900467ffffffffffffffff1690506000808267ffffffffffffffff161480156101cc5750825b9050600060018367ffffffffffffffff16148015610201575060003073ffffffffffffffffffffffffffffffffffffffff163b145b90508115801561020f575080155b15610246576040517ff92ee8a900000000000000000000000000000000000000000000000000000000815260040160405180910390fd5b60018560000160006101000a81548167ffffffffffffffff021916908367ffffffffffffffff16021790555083156102965760018560000160086101000a81548160ff0219169083151502179055505b856000806101000a81548173ffffffffffffffffffffffffffffffffffffffff021916908373ffffffffffffffffffffffffffffffffffffffff16021790555083156103325760008560000160086101000a81548160ff0219169083151502179055507fc7f505b2f371ae2175ee4913f4499e1f2633a7b5936321eed1cdaeb6115181d260016040516103299190610487565b60405180910390a15b505050505050565b60007ff0c57e16840df040f15088dc2f81fe391c3923bec73e23a9662efc9c229c6a00905090565b600073ffffffffffffffffffffffffffffffffffffffff82169050919050565b600061038d82610362565b9050919050565b61039d81610382565b82525050565b60006020820190506103b86000830184610394565b92915050565b600080fd5b60006103ce82610362565b9050919050565b6103de816103c3565b81146103e957600080fd5b50565b6000813590506103fb816103d5565b92915050565b600060208284031215610417576104166103be565b5b6000610425848285016103ec565b91505092915050565b6000819050919050565b600067ffffffffffffffff82169050919050565b6000819050919050565b600061047161046c6104678461042e565b61044c565b610438565b9050919050565b61048181610456565b82525050565b600060208201905061049c6000830184610478565b9291505056fea2646970667358221220af9a43874997bc5bde1211ebc4a071183e6319ff81c061a53a8192ca804e745d64736f6c6343000818003360a060405260405161096038038061096083398181016040528101906100259190610684565b610035828261007060201b60201c565b8173ffffffffffffffffffffffffffffffffffffffff1660808173ffffffffffffffffffffffffffffffffffffffff16815250505050610795565b61007f8261016360201b60201c565b8173ffffffffffffffffffffffffffffffffffffffff167f1cf3b03a6cf19fa2baba4df148e9dcabedea7f8a5c07840e207e5c089be95d3e60405160405180910390a26000815111156101505761014a8273ffffffffffffffffffffffffffffffffffffffff16635c60da1b6040518163ffffffff1660e01b8152600401602060405180830381865afa15801561011a573d6000803e3d6000fd5b505050506040513d601f19601f8201168201806040525081019061013e91906106e0565b8261030660201b60201c565b5061015f565b61015e61039060201b60201c565b5b5050565b60008173ffffffffffffffffffffffffffffffffffffffff163b036101bf57806040517f64ced0ec0000000000000000000000000000000000000000000000000000000081526004016101b6919061071c565b60405180910390fd5b806101f27fa3f0ad74e5423aebfd80d3ef4346578335a9a72aeaee59ff6cb3582b35133d5060001b6103cd60201b60201c565b60000160006101000a81548173ffffffffffffffffffffffffffffffffffffffff021916908373ffffffffffffffffffffffffffffffffffffffff16021790555060008173ffffffffffffffffffffffffffffffffffffffff16635c60da1b6040518163ffffffff1660e01b8152600401602060405180830381865afa158015610280573d6000803e3d6000fd5b505050506040513d601f19601f820116820180604052508101906102a491906106e0565b905060008173ffffffffffffffffffffffffffffffffffffffff163b0361030257806040517f4c9c8ce30000000000000000000000000000000000000000000000000000000081526004016102f9919061071c565b60405180910390fd5b5050565b60606000808473ffffffffffffffffffffffffffffffffffffffff1684604051610330919061077e565b600060405180830381855af49150503d806000811461036b576040519150601f19603f3d011682016040523d82523d6000602084013e610370565b606091505b50915091506103868583836103d760201b60201c565b9250505092915050565b60003411156103cb576040517fb398979f00000000000000000000000000000000000000000000000000000000815260040160405180910390fd5b565b6000819050919050565b6060826103f2576103ed8261046c60201b60201c565b610464565b6000825114801561041a575060008473ffffffffffffffffffffffffffffffffffffffff163b145b1561045c57836040517f9996b315000000000000000000000000000000000000000000000000000000008152600401610453919061071c565b60405180910390fd5b819050610465565b5b9392505050565b60008151111561047f5780518082602001fd5b6040517f1425ea4200000000000000000000000000000000000000000000000000000000815260040160405180910390fd5b6000604051905090565b600080fd5b600080fd5b600073ffffffffffffffffffffffffffffffffffffffff82169050919050565b60006104f0826104c5565b9050919050565b610500816104e5565b811461050b57600080fd5b50565b60008151905061051d816104f7565b92915050565b600080fd5b600080fd5b6000601f19601f8301169050919050565b7f4e487b7100000000000000000000000000000000000000000000000000000000600052604160045260246000fd5b6105768261052d565b810181811067ffffffffffffffff821117156105955761059461053e565b5b80604052505050565b60006105a86104b1565b90506105b4828261056d565b919050565b600067ffffffffffffffff8211156105d4576105d361053e565b5b6105dd8261052d565b9050602081019050919050565b60005b838110156106085780820151818401526020810190506105ed565b60008484015250505050565b6000610627610622846105b9565b61059e565b90508281526020810184848401111561064357610642610528565b5b61064e8482856105ea565b509392505050565b600082601f83011261066b5761066a610523565b5b815161067b848260208601610614565b91505092915050565b6000806040838503121561069b5761069a6104bb565b5b60006106a98582860161050e565b925050602083015167ffffffffffffffff8111156106ca576106c96104c0565b5b6106d685828601610656565b9150509250929050565b6000602082840312156106f6576106f56104bb565b5b60006107048482850161050e565b91505092915050565b610716816104e5565b82525050565b6000602082019050610731600083018461070d565b92915050565b600081519050919050565b600081905092915050565b600061075882610737565b6107628185610742565b93506107728185602086016105ea565b80840191505092915050565b600061078a828461074d565b915081905092915050565b6080516101b16107af600039600060c701526101b16000f3fe608060405261000c61000e565b005b61001e610019610020565b61009d565b565b600061002a6100c3565b73ffffffffffffffffffffffffffffffffffffffff16635c60da1b6040518163ffffffff1660e01b8152600401602060405180830381865afa158015610074573d6000803e3d6000fd5b505050506040513d601f19601f82011682018060405250810190610098919061014e565b905090565b3660008037600080366000845af43d6000803e80600081146100be573d6000f35b3d6000fd5b60007f0000000000000000000000000000000000000000000000000000000000000000905090565b600080fd5b600073ffffffffffffffffffffffffffffffffffffffff82169050919050565b600061011b826100f0565b9050919050565b61012b81610110565b811461013657600080fd5b50565b60008151905061014881610122565b92915050565b600060208284031215610164576101636100eb565b5b600061017284828501610139565b9150509291505056fea2646970667358221220275ca093ee5eee8ffaeffd8be342a09e06ca3181d33e4c01166a9026f57c6b1664736f6c63430008180033a2646970667358221220c982ac50621781b80ceb5bc66986be9457ad19d455a0cc852d13dfe7040a35db64736f6c63430008180033608060405234801561001057600080fd5b506104d8806100206000396000f3fe608060405234801561001057600080fd5b50600436106100415760003560e01c80633ccfd60b14610046578063893d20e814610050578063c4d66de81461006e575b600080fd5b61004e61008a565b005b61005861014b565b60405161006591906103a3565b60405180910390f35b61008860048036038101906100839190610401565b610174565b005b3373ffffffffffffffffffffffffffffffffffffffff1660008054906101000a900473ffffffffffffffffffffffffffffffffffffffff1673ffffffffffffffffffffffffffffffffffffffff16146100e257600080fd5b60008054906101000a900473ffffffffffffffffffffffffffffffffffffffff1673ffffffffffffffffffffffffffffffffffffffff166108fc479081150290604051600060405180830381858888f19350505050158015610148573d6000803e3d6000fd5b50565b60008060009054906101000a900473ffffffffffffffffffffffffffffffffffffffff16905090565b600061017e61033a565b905060008160000160089054906101000a900460ff1615905060008260000160009054906101000a900467ffffffffffffffff1690506000808267ffffffffffffffff161480156101cc5750825b9050600060018367ffffffffffffffff16148015610201575060003073ffffffffffffffffffffffffffffffffffffffff163b145b90508115801561020f575080155b15610246576040517ff92ee8a900000000000000000000000000000000000000000000000000000000815260040160405180910390fd5b60018560000160006101000a81548167ffffffffffffffff021916908367ffffffffffffffff16021790555083156102965760018560000160086101000a81548160ff0219169083151502179055505b856000806101000a81548173ffffffffffffffffffffffffffffffffffffffff021916908373ffffffffffffffffffffffffffffffffffffffff16021790555083156103325760008560000160086101000a81548160ff0219169083151502179055507fc7f505b2f371ae2175ee4913f4499e1f2633a7b5936321eed1cdaeb6115181d260016040516103299190610487565b60405180910390a15b505050505050565b60007ff0c57e16840df040f15088dc2f81fe391c3923bec73e23a9662efc9c229c6a00905090565b600073ffffffffffffffffffffffffffffffffffffffff82169050919050565b600061038d82610362565b9050919050565b61039d81610382565b82525050565b60006020820190506103b86000830184610394565b92915050565b600080fd5b60006103ce82610362565b9050919050565b6103de816103c3565b81146103e957600080fd5b50565b6000813590506103fb816103d5565b92915050565b600060208284031215610417576104166103be565b5b6000610425848285016103ec565b91505092915050565b6000819050919050565b600067ffffffffffffffff82169050919050565b6000819050919050565b600061047161046c6104678461042e565b61044c565b610438565b9050919050565b61048181610456565b82525050565b600060208201905061049c6000830184610478565b9291505056fea2646970667358221220af9a43874997bc5bde1211ebc4a071183e6319ff81c061a53a8192ca804e745d64736f6c63430008180033608060405234801561001057600080fd5b5060405161084f38038061084f833981810160405281019061003291906102d5565b80600073ffffffffffffffffffffffffffffffffffffffff168173ffffffffffffffffffffffffffffffffffffffff16036100a55760006040517f1e4fbdf700000000000000000000000000000000000000000000000000000000815260040161009c9190610324565b60405180910390fd5b6100b4816100cb60201b60201c565b506100c48261018f60201b60201c565b505061033f565b60008060009054906101000a900473ffffffffffffffffffffffffffffffffffffffff169050816000806101000a81548173ffffffffffffffffffffffffffffffffffffffff021916908373ffffffffffffffffffffffffffffffffffffffff1602179055508173ffffffffffffffffffffffffffffffffffffffff168173ffffffffffffffffffffffffffffffffffffffff167f8be0079c531659141344cd1fd0a4f28419497f9722a3daafe3b4186f6b6457e060405160405180910390a35050565b60008173ffffffffffffffffffffffffffffffffffffffff163b036101eb57806040517f847ac5640000000000000000000000000000000000000000000000000000000081526004016101e29190610324565b60405180910390fd5b80600160006101000a81548173ffffffffffffffffffffffffffffffffffffffff021916908373ffffffffffffffffffffffffffffffffffffffff1602179055508073ffffffffffffffffffffffffffffffffffffffff167fbc7cd75a20ee27fd9adebab32041f755214dbc6bffa90cc0225b39da2e5c2d3b60405160405180910390a250565b600080fd5b600073ffffffffffffffffffffffffffffffffffffffff82169050919050565b60006102a282610277565b9050919050565b6102b281610297565b81146102bd57600080fd5b50565b6000815190506102cf816102a9565b92915050565b600080604083850312156102ec576102eb610272565b5b60006102fa858286016102c0565b925050602061030b858286016102c0565b9150509250929050565b61031e81610297565b82525050565b60006020820190506103396000830184610315565b92915050565b6105018061034e6000396000f3fe608060405234801561001057600080fd5b50600436106100575760003560e01c80633659cfe61461005c5780635c60da1b14610078578063715018a6146100965780638da5cb5b146100a0578063f2fde38b146100be575b600080fd5b61007660048036038101906100719190610474565b6100da565b005b6100806100ee565b60405161008d91906104b0565b60405180910390f35b61009e610118565b005b6100a861012c565b6040516100b591906104b0565b60405180910390f35b6100d860048036038101906100d39190610474565b610155565b005b6100e26101db565b6100eb81610262565b50565b6000600160009054906101000a900473ffffffffffffffffffffffffffffffffffffffff16905090565b6101206101db565b61012a6000610345565b565b60008060009054906101000a900473ffffffffffffffffffffffffffffffffffffffff16905090565b61015d6101db565b600073ffffffffffffffffffffffffffffffffffffffff168173ffffffffffffffffffffffffffffffffffffffff16036101cf5760006040517f1e4fbdf70000000000000000000000000000000000000000000000000000000081526004016101c691906104b0565b60405180910390fd5b6101d881610345565b50565b6101e3610409565b73ffffffffffffffffffffffffffffffffffffffff1661020161012c565b73ffffffffffffffffffffffffffffffffffffffff161461026057610224610409565b6040517f118cdaa700000000000000000000000000000000000000000000000000000000815260040161025791906104b0565b60405180910390fd5b565b60008173ffffffffffffffffffffffffffffffffffffffff163b036102be57806040517f847ac5640000000000000000000000000000000000000000000000000000000081526004016102b591906104b0565b60405180910390fd5b80600160006101000a81548173ffffffffffffffffffffffffffffffffffffffff021916908373ffffffffffffffffffffffffffffffffffffffff1602179055508073ffffffffffffffffffffffffffffffffffffffff167fbc7cd75a20ee27fd9adebab32041f755214dbc6bffa90cc0225b39da2e5c2d3b60405160405180910390a250565b60008060009054906101000a900473ffffffffffffffffffffffffffffffffffffffff169050816000806101000a81548173ffffffffffffffffffffffffffffffffffffffff021916908373ffffffffffffffffffffffffffffffffffffffff1602179055508173ffffffffffffffffffffffffffffffffffffffff168173ffffffffffffffffffffffffffffffffffffffff167f8be0079c531659141344cd1fd0a4f28419497f9722a3daafe3b4186f6b6457e060405160405180910390a35050565b600033905090565b600080fd5b600073ffffffffffffffffffffffffffffffffffffffff82169050919050565b600061044182610416565b9050919050565b61045181610436565b811461045c57600080fd5b50565b60008135905061046e81610448565b92915050565b60006020828403121561048a57610489610411565b5b60006104988482850161045f565b91505092915050565b6104aa81610436565b82525050565b60006020820190506104c560008301846104a1565b9291505056fea264697066735822122042bde0708de8cb9184ff531c5d17fac83d5f5eff3515eb93566d926666b461d564736f6c63430008180033",
  "linkReferences": {},
  "deployedLinkReferences": {}
}